{
  "contractName": "A",
  "abi": [
    {
      "inputs": [],
      "payable": false,
      "stateMutability": "nonpayable",
      "type": "constructor",
      "signature": "constructor"
    },
    {
      "constant": true,
      "inputs": [],
      "name": "getValue",
      "outputs": [
        {
          "name": "",
          "type": "uint256"
        }
      ],
      "payable": false,
      "stateMutability": "view",
      "type": "function",
      "signature": "0x20965255"
    },
    {
      "constant": true,
      "inputs": [],
      "name": "getAdmin",
      "outputs": [
        {
          "name": "",
          "type": "address"
        }
      ],
      "payable": false,
      "stateMutability": "view",
      "type": "function",
      "signature": "0x6e9960c3"
    },
    {
      "constant": false,
      "inputs": [
        {
          "name": "_val",
          "type": "uint256"
        }
      ],
      "name": "setValue",
      "outputs": [],
      "payable": false,
      "stateMutability": "nonpayable",
      "type": "function",
      "signature": "0x55241077"
    }
  ],
  "bytecode": "0x6080604052606460005534801561001557600080fd5b5060018054600160a060020a03191633179055610143806100376000396000f3fe608060405234801561001057600080fd5b506004361061005d577c01000000000000000000000000000000000000000000000000000000006000350463209652558114610062578063552410771461007c5780636e9960c31461009b575b600080fd5b61006a6100cc565b60408051918252519081900360200190f35b6100996004803603602081101561009257600080fd5b50356100d2565b005b6100a36100fb565b6040805173ffffffffffffffffffffffffffffffffffffffff9092168252519081900360200190f35b60005490565b60015473ffffffffffffffffffffffffffffffffffffffff163314156100f85760008190555b50565b60015473ffffffffffffffffffffffffffffffffffffffff169056fea165627a7a72305820a30d225d2820650bc7e0ea52fb6dd6f432a6f17c34ac8be987f4e915fdefbb050029",
  "source": "pragma solidity >=0.4.21 <0.6.0;\r\ncontract A {\r\nuint val = 100;\r\n    address admin;\r\n\r\n    constructor () public {\r\n        admin = msg.sender;\r\n    }\r\n\r\nfunction getValue () public view returns (uint) {\r\n    return val;\r\n}\r\n\r\nfunction getAdmin () public view returns (address) {\r\n    return admin;\r\n}\r\n\r\nfunction setValue (uint256 _val) public {\r\nif (msg.sender == admin)\r\n    val =_val;\r\n}\r\n\r\n}\r\n\r\n/*\r\ncontract B {\r\n//запрос к контракту А admin\r\n\r\nfunction setValue (uint256 _val) public {\r\nif (msg.sender == admin??)\r\nval =_val;\r\n}\r\n}\r\n*/\r\n\r\n",
  "sourcePath": "C:/projects/bootstrap/contracts/Contract.sol",
  "compiler": {
    "name": "solc",
    "version": "0.5.7+commit.6da8b019.Emscripten.clang"
  },
  "schemaVersion": "3.0.0-beta.2",
  "updatedAt": "2019-04-26T10:33:58.979Z",
  "devdoc": {
    "methods": {}
  },
  "userdoc": {
    "methods": {}
  }
}