{
  "contractName": "AdminInfoContract",
  "abi": [
    {
      "constant": true,
      "inputs": [],
      "name": "departmentID",
      "outputs": [
        {
          "name": "",
          "type": "uint256"
        }
      ],
      "payable": false,
      "stateMutability": "view",
      "type": "function",
      "signature": "0x1b28e912"
    },
    {
      "constant": true,
      "inputs": [],
      "name": "employeeID",
      "outputs": [
        {
          "name": "",
          "type": "uint256"
        }
      ],
      "payable": false,
      "stateMutability": "view",
      "type": "function",
      "signature": "0x9cd37bf0"
    },
    {
      "constant": true,
      "inputs": [],
      "name": "VerificationID",
      "outputs": [
        {
          "name": "",
          "type": "uint256"
        }
      ],
      "payable": false,
      "stateMutability": "view",
      "type": "function",
      "signature": "0xc9e57f85"
    },
    {
      "constant": true,
      "inputs": [],
      "name": "positionID",
      "outputs": [
        {
          "name": "",
          "type": "uint256"
        }
      ],
      "payable": false,
      "stateMutability": "view",
      "type": "function",
      "signature": "0xce05f8c7"
    },
    {
      "constant": true,
      "inputs": [],
      "name": "documentID",
      "outputs": [
        {
          "name": "",
          "type": "uint256"
        }
      ],
      "payable": false,
      "stateMutability": "view",
      "type": "function",
      "signature": "0xf3128106"
    },
    {
      "constant": true,
      "inputs": [],
      "name": "documentIDRef",
      "outputs": [
        {
          "name": "",
          "type": "uint256"
        }
      ],
      "payable": false,
      "stateMutability": "view",
      "type": "function",
      "signature": "0xfbcdcb39"
    },
    {
      "constant": false,
      "inputs": [
        {
          "name": "ID",
          "type": "uint256"
        },
        {
          "name": "_name",
          "type": "string"
        },
        {
          "name": "_dep",
          "type": "string"
        },
        {
          "name": "_hash",
          "type": "string"
        },
        {
          "name": "_acc",
          "type": "string"
        },
        {
          "name": "_stat",
          "type": "string"
        },
        {
          "name": "_time",
          "type": "string"
        }
      ],
      "name": "CreateDocumentRef",
      "outputs": [],
      "payable": false,
      "stateMutability": "nonpayable",
      "type": "function",
      "signature": "0x52172885"
    },
    {
      "constant": true,
      "inputs": [
        {
          "name": "ID",
          "type": "uint256"
        }
      ],
      "name": "CheckDocRef",
      "outputs": [
        {
          "name": "",
          "type": "bool"
        }
      ],
      "payable": false,
      "stateMutability": "view",
      "type": "function",
      "signature": "0xd1a6a352"
    },
    {
      "constant": true,
      "inputs": [
        {
          "name": "ID",
          "type": "uint256"
        }
      ],
      "name": "GetDocRefName",
      "outputs": [
        {
          "name": "",
          "type": "string"
        }
      ],
      "payable": false,
      "stateMutability": "view",
      "type": "function",
      "signature": "0x9d34ffef"
    },
    {
      "constant": true,
      "inputs": [
        {
          "name": "name",
          "type": "string"
        }
      ],
      "name": "GetDocID",
      "outputs": [
        {
          "name": "",
          "type": "uint256"
        }
      ],
      "payable": false,
      "stateMutability": "view",
      "type": "function",
      "signature": "0xda0a03fe"
    },
    {
      "constant": false,
      "inputs": [
        {
          "name": "_name",
          "type": "string"
        },
        {
          "name": "_dep",
          "type": "string"
        },
        {
          "name": "_hash",
          "type": "string"
        },
        {
          "name": "_acc",
          "type": "string"
        },
        {
          "name": "_stat",
          "type": "string"
        },
        {
          "name": "_time",
          "type": "string"
        }
      ],
      "name": "CreateDocument",
      "outputs": [],
      "payable": false,
      "stateMutability": "nonpayable",
      "type": "function",
      "signature": "0x44602de8"
    },
    {
      "constant": true,
      "inputs": [
        {
          "name": "_name",
          "type": "string"
        }
      ],
      "name": "CheckDocumentUnique",
      "outputs": [
        {
          "name": "",
          "type": "bool"
        }
      ],
      "payable": false,
      "stateMutability": "view",
      "type": "function",
      "signature": "0x05e566c7"
    },
    {
      "constant": true,
      "inputs": [
        {
          "name": "i",
          "type": "uint256"
        }
      ],
      "name": "GetDocumentInfoByID",
      "outputs": [
        {
          "name": "",
          "type": "string"
        },
        {
          "name": "",
          "type": "string"
        },
        {
          "name": "",
          "type": "string"
        },
        {
          "name": "",
          "type": "string"
        },
        {
          "name": "",
          "type": "string"
        },
        {
          "name": "",
          "type": "string"
        }
      ],
      "payable": false,
      "stateMutability": "view",
      "type": "function",
      "signature": "0x93b112eb"
    },
    {
      "constant": true,
      "inputs": [
        {
          "name": "_dep",
          "type": "string"
        }
      ],
      "name": "GetDepartmentID",
      "outputs": [
        {
          "name": "",
          "type": "uint256"
        }
      ],
      "payable": false,
      "stateMutability": "view",
      "type": "function",
      "signature": "0x3d5d11df"
    },
    {
      "constant": false,
      "inputs": [
        {
          "name": "_name",
          "type": "string"
        },
        {
          "name": "_dep",
          "type": "string"
        },
        {
          "name": "_time",
          "type": "string"
        },
        {
          "name": "res",
          "type": "uint256"
        }
      ],
      "name": "UpdateDocStatus",
      "outputs": [],
      "payable": false,
      "stateMutability": "nonpayable",
      "type": "function",
      "signature": "0xeb814f98"
    },
    {
      "constant": true,
      "inputs": [],
      "name": "GetVerificationsCount",
      "outputs": [
        {
          "name": "",
          "type": "uint256"
        }
      ],
      "payable": false,
      "stateMutability": "view",
      "type": "function",
      "signature": "0xc72d8e0b"
    },
    {
      "constant": true,
      "inputs": [
        {
          "name": "id",
          "type": "uint256"
        }
      ],
      "name": "getVerificationInfo",
      "outputs": [
        {
          "name": "",
          "type": "string"
        },
        {
          "name": "",
          "type": "string"
        },
        {
          "name": "",
          "type": "string"
        }
      ],
      "payable": false,
      "stateMutability": "view",
      "type": "function",
      "signature": "0x9cc3fe74"
    },
    {
      "constant": true,
      "inputs": [],
      "name": "GetDocumentsCount",
      "outputs": [
        {
          "name": "",
          "type": "uint256"
        }
      ],
      "payable": false,
      "stateMutability": "view",
      "type": "function",
      "signature": "0xcd496b2c"
    },
    {
      "constant": true,
      "inputs": [
        {
          "name": "_name",
          "type": "string"
        }
      ],
      "name": "GetDocVerifications",
      "outputs": [
        {
          "name": "",
          "type": "uint256"
        }
      ],
      "payable": false,
      "stateMutability": "view",
      "type": "function",
      "signature": "0x7d85547e"
    },
    {
      "constant": false,
      "inputs": [
        {
          "name": "_surname",
          "type": "string"
        },
        {
          "name": "_name",
          "type": "string"
        },
        {
          "name": "_middlename",
          "type": "string"
        },
        {
          "name": "_addr",
          "type": "string"
        },
        {
          "name": "_department",
          "type": "string"
        },
        {
          "name": "_position",
          "type": "string"
        },
        {
          "name": "_status",
          "type": "string"
        }
      ],
      "name": "CreateEmployee",
      "outputs": [],
      "payable": false,
      "stateMutability": "nonpayable",
      "type": "function",
      "signature": "0xf273a0ba"
    },
    {
      "constant": false,
      "inputs": [
        {
          "name": "id",
          "type": "uint256"
        },
        {
          "name": "_surname",
          "type": "string"
        },
        {
          "name": "_name",
          "type": "string"
        },
        {
          "name": "_middlename",
          "type": "string"
        },
        {
          "name": "_addr",
          "type": "string"
        },
        {
          "name": "_department",
          "type": "string"
        },
        {
          "name": "_position",
          "type": "string"
        },
        {
          "name": "_status",
          "type": "string"
        }
      ],
      "name": "UpdateEmployeeInfo",
      "outputs": [],
      "payable": false,
      "stateMutability": "nonpayable",
      "type": "function",
      "signature": "0x27b05d6f"
    },
    {
      "constant": false,
      "inputs": [
        {
          "name": "_title",
          "type": "string"
        }
      ],
      "name": "CreatePosition",
      "outputs": [],
      "payable": false,
      "stateMutability": "nonpayable",
      "type": "function",
      "signature": "0x9092c060"
    },
    {
      "constant": false,
      "inputs": [
        {
          "name": "_title",
          "type": "string"
        }
      ],
      "name": "CreateDepartment",
      "outputs": [],
      "payable": false,
      "stateMutability": "nonpayable",
      "type": "function",
      "signature": "0x9472cc28"
    },
    {
      "constant": false,
      "inputs": [
        {
          "name": "_name",
          "type": "string"
        }
      ],
      "name": "DeletePositionName",
      "outputs": [],
      "payable": false,
      "stateMutability": "nonpayable",
      "type": "function",
      "signature": "0xb3eb33c0"
    },
    {
      "constant": false,
      "inputs": [
        {
          "name": "_name",
          "type": "string"
        }
      ],
      "name": "DeleteDepartmentName",
      "outputs": [],
      "payable": false,
      "stateMutability": "nonpayable",
      "type": "function",
      "signature": "0x4c0c206c"
    },
    {
      "constant": true,
      "inputs": [
        {
          "name": "_number",
          "type": "uint256"
        }
      ],
      "name": "GetPositionNameFromPositionNum",
      "outputs": [
        {
          "name": "",
          "type": "string"
        }
      ],
      "payable": false,
      "stateMutability": "view",
      "type": "function",
      "signature": "0x8f4539a2"
    },
    {
      "constant": true,
      "inputs": [
        {
          "name": "_number",
          "type": "uint256"
        }
      ],
      "name": "GetPositionStatusFromPositionNum",
      "outputs": [
        {
          "name": "",
          "type": "string"
        }
      ],
      "payable": false,
      "stateMutability": "view",
      "type": "function",
      "signature": "0xc870ccaa"
    },
    {
      "constant": true,
      "inputs": [
        {
          "name": "_number",
          "type": "uint256"
        }
      ],
      "name": "GetDepartmentNameFromDepartmentNum",
      "outputs": [
        {
          "name": "",
          "type": "string"
        }
      ],
      "payable": false,
      "stateMutability": "view",
      "type": "function",
      "signature": "0x84b61ecd"
    },
    {
      "constant": true,
      "inputs": [
        {
          "name": "_number",
          "type": "uint256"
        }
      ],
      "name": "GetDepartmentStatusFromDepartmentNum",
      "outputs": [
        {
          "name": "",
          "type": "bool"
        }
      ],
      "payable": false,
      "stateMutability": "view",
      "type": "function",
      "signature": "0xc0799fb2"
    },
    {
      "constant": true,
      "inputs": [],
      "name": "GetPositionsCount",
      "outputs": [
        {
          "name": "",
          "type": "uint256"
        }
      ],
      "payable": false,
      "stateMutability": "view",
      "type": "function",
      "signature": "0x6c49357a"
    },
    {
      "constant": true,
      "inputs": [],
      "name": "GetDepartmentsCount",
      "outputs": [
        {
          "name": "",
          "type": "uint256"
        }
      ],
      "payable": false,
      "stateMutability": "view",
      "type": "function",
      "signature": "0x2f069a00"
    },
    {
      "constant": true,
      "inputs": [],
      "name": "GetEmployeeCount",
      "outputs": [
        {
          "name": "",
          "type": "uint256"
        }
      ],
      "payable": false,
      "stateMutability": "view",
      "type": "function",
      "signature": "0x78f66b75"
    },
    {
      "constant": true,
      "inputs": [
        {
          "name": "_acc",
          "type": "string"
        }
      ],
      "name": "CheckUser",
      "outputs": [
        {
          "name": "",
          "type": "uint256"
        }
      ],
      "payable": false,
      "stateMutability": "view",
      "type": "function",
      "signature": "0xa52ad802"
    },
    {
      "constant": true,
      "inputs": [
        {
          "name": "i",
          "type": "uint256"
        }
      ],
      "name": "GetEmployeeInfo",
      "outputs": [
        {
          "name": "",
          "type": "string"
        },
        {
          "name": "",
          "type": "string"
        },
        {
          "name": "",
          "type": "string"
        },
        {
          "name": "",
          "type": "string"
        },
        {
          "name": "",
          "type": "string"
        },
        {
          "name": "",
          "type": "string"
        },
        {
          "name": "",
          "type": "string"
        }
      ],
      "payable": false,
      "stateMutability": "view",
      "type": "function",
      "signature": "0x5a2d7aac"
    },
    {
      "constant": true,
      "inputs": [
        {
          "name": "_acc",
          "type": "string"
        }
      ],
      "name": "GetPersonalInfo",
      "outputs": [
        {
          "name": "",
          "type": "uint256"
        },
        {
          "name": "",
          "type": "string"
        },
        {
          "name": "",
          "type": "string"
        },
        {
          "name": "",
          "type": "string"
        },
        {
          "name": "",
          "type": "string"
        },
        {
          "name": "",
          "type": "string"
        },
        {
          "name": "",
          "type": "string"
        }
      ],
      "payable": false,
      "stateMutability": "view",
      "type": "function",
      "signature": "0x5f76cf77"
    },
    {
      "constant": true,
      "inputs": [
        {
          "name": "_acc",
          "type": "string"
        }
      ],
      "name": "GetAccountDepartment",
      "outputs": [
        {
          "name": "",
          "type": "string"
        }
      ],
      "payable": false,
      "stateMutability": "view",
      "type": "function",
      "signature": "0xc64a85a7"
    }
  ],
  "bytecode": "0x608060405260006006556000600755600060085560006009556000600a556000600b5534801561002e57600080fd5b50615fcd806200003f6000396000f3fe608060405234801561001057600080fd5b50600436106101f9576000357c0100000000000000000000000000000000000000000000000000000000900480639cc3fe7411610122578063c9e57f85116100ba578063c9e57f8514611d7c578063cd496b2c14611d84578063ce05f8c714611d8c578063d1a6a35214611d94578063da0a03fe14611db1578063eb814f9814611e55578063f273a0ba14612005578063f3128106146123c7578063fbcdcb39146123cf576101f9565b80639cc3fe74146119c85780639cd37bf014611b295780639d34ffef14611b31578063a52ad80214611b4e578063b3eb33c014611bf2578063c0799fb214611c96578063c64a85a714611cb3578063c72d8e0b14611d57578063c870ccaa14611d5f576101f9565b80635f76cf77116101955780635f76cf77146111695780636c49357a1461148a57806378f66b75146114925780637d85547e1461149a57806384b61ecd1461153e5780638f4539a2146115d05780639092c060146115ed57806393b112eb146116915780639472cc2814611924576101f9565b806305e566c7146101fe5780631b28e912146102b657806327b05d6f146102d05780632f069a001461069c5780633d5d11df146106a457806344602de8146107485780634c0c206c14610a855780635217288514610b295780635a2d7aac14610e6d575b600080fd5b6102a26004803603602081101561021457600080fd5b810190602081018135602060020a81111561022e57600080fd5b82018360208201111561024057600080fd5b803590602001918460018302840111602060020a8311171561026157600080fd5b91908080601f0160208091040260200160405190810160405280939291908181526020018383808284376000920191909152509295506123d7945050505050565b604080519115158252519081900360200190f35b6102be612557565b60408051918252519081900360200190f35b61069a60048036036101008110156102e757600080fd5b81359190810190604081016020820135602060020a81111561030857600080fd5b82018360208201111561031a57600080fd5b803590602001918460018302840111602060020a8311171561033b57600080fd5b91908080601f0160208091040260200160405190810160405280939291908181526020018383808284376000920191909152509295949360208101935035915050602060020a81111561038d57600080fd5b82018360208201111561039f57600080fd5b803590602001918460018302840111602060020a831117156103c057600080fd5b91908080601f0160208091040260200160405190810160405280939291908181526020018383808284376000920191909152509295949360208101935035915050602060020a81111561041257600080fd5b82018360208201111561042457600080fd5b803590602001918460018302840111602060020a8311171561044557600080fd5b91908080601f0160208091040260200160405190810160405280939291908181526020018383808284376000920191909152509295949360208101935035915050602060020a81111561049757600080fd5b8201836020820111156104a957600080fd5b803590602001918460018302840111602060020a831117156104ca57600080fd5b91908080601f0160208091040260200160405190810160405280939291908181526020018383808284376000920191909152509295949360208101935035915050602060020a81111561051c57600080fd5b82018360208201111561052e57600080fd5b803590602001918460018302840111602060020a8311171561054f57600080fd5b91908080601f0160208091040260200160405190810160405280939291908181526020018383808284376000920191909152509295949360208101935035915050602060020a8111156105a157600080fd5b8201836020820111156105b357600080fd5b803590602001918460018302840111602060020a831117156105d457600080fd5b91908080601f0160208091040260200160405190810160405280939291908181526020018383808284376000920191909152509295949360208101935035915050602060020a81111561062657600080fd5b82018360208201111561063857600080fd5b803590602001918460018302840111602060020a8311171561065957600080fd5b91908080601f01602080910402602001604051908101604052809392919081815260200183838082843760009201919091525092955061255d945050505050565b005b6102be6126cc565b6102be600480360360208110156106ba57600080fd5b810190602081018135602060020a8111156106d457600080fd5b8201836020820111156106e657600080fd5b803590602001918460018302840111602060020a8311171561070757600080fd5b91908080601f0160208091040260200160405190810160405280939291908181526020018383808284376000920191909152509295506126d3945050505050565b61069a600480360360c081101561075e57600080fd5b810190602081018135602060020a81111561077857600080fd5b82018360208201111561078a57600080fd5b803590602001918460018302840111602060020a831117156107ab57600080fd5b91908080601f0160208091040260200160405190810160405280939291908181526020018383808284376000920191909152509295949360208101935035915050602060020a8111156107fd57600080fd5b82018360208201111561080f57600080fd5b803590602001918460018302840111602060020a8311171561083057600080fd5b91908080601f0160208091040260200160405190810160405280939291908181526020018383808284376000920191909152509295949360208101935035915050602060020a81111561088257600080fd5b82018360208201111561089457600080fd5b803590602001918460018302840111602060020a831117156108b557600080fd5b91908080601f0160208091040260200160405190810160405280939291908181526020018383808284376000920191909152509295949360208101935035915050602060020a81111561090757600080fd5b82018360208201111561091957600080fd5b803590602001918460018302840111602060020a8311171561093a57600080fd5b91908080601f0160208091040260200160405190810160405280939291908181526020018383808284376000920191909152509295949360208101935035915050602060020a81111561098c57600080fd5b82018360208201111561099e57600080fd5b803590602001918460018302840111602060020a831117156109bf57600080fd5b91908080601f0160208091040260200160405190810160405280939291908181526020018383808284376000920191909152509295949360208101935035915050602060020a811115610a1157600080fd5b820183602082011115610a2357600080fd5b803590602001918460018302840111602060020a83111715610a4457600080fd5b91908080601f01602080910402602001604051908101604052809392919081815260200183838082843760009201919091525092955061286b945050505050565b61069a60048036036020811015610a9b57600080fd5b810190602081018135602060020a811115610ab557600080fd5b820183602082011115610ac757600080fd5b803590602001918460018302840111602060020a83111715610ae857600080fd5b91908080601f016020809104026020016040519081016040528093929190818152602001838380828437600092019190915250929550612aac945050505050565b61069a600480360360e0811015610b3f57600080fd5b81359190810190604081016020820135602060020a811115610b6057600080fd5b820183602082011115610b7257600080fd5b803590602001918460018302840111602060020a83111715610b9357600080fd5b91908080601f0160208091040260200160405190810160405280939291908181526020018383808284376000920191909152509295949360208101935035915050602060020a811115610be557600080fd5b820183602082011115610bf757600080fd5b803590602001918460018302840111602060020a83111715610c1857600080fd5b91908080601f0160208091040260200160405190810160405280939291908181526020018383808284376000920191909152509295949360208101935035915050602060020a811115610c6a57600080fd5b820183602082011115610c7c57600080fd5b803590602001918460018302840111602060020a83111715610c9d57600080fd5b91908080601f0160208091040260200160405190810160405280939291908181526020018383808284376000920191909152509295949360208101935035915050602060020a811115610cef57600080fd5b820183602082011115610d0157600080fd5b803590602001918460018302840111602060020a83111715610d2257600080fd5b91908080601f0160208091040260200160405190810160405280939291908181526020018383808284376000920191909152509295949360208101935035915050602060020a811115610d7457600080fd5b820183602082011115610d8657600080fd5b803590602001918460018302840111602060020a83111715610da757600080fd5b91908080601f0160208091040260200160405190810160405280939291908181526020018383808284376000920191909152509295949360208101935035915050602060020a811115610df957600080fd5b820183602082011115610e0b57600080fd5b803590602001918460018302840111602060020a83111715610e2c57600080fd5b91908080601f016020809104026020016040519081016040528093929190818152602001838380828437600092019190915250929550612eeb945050505050565b610e8a60048036036020811015610e8357600080fd5b5035613074565b604051808060200180602001806020018060200180602001806020018060200188810388528f818151815260200191508051906020019080838360005b83811015610edf578181015183820152602001610ec7565b50505050905090810190601f168015610f0c5780820380516001836020036101000a031916815260200191505b5088810387528e818151815260200191508051906020019080838360005b83811015610f42578181015183820152602001610f2a565b50505050905090810190601f168015610f6f5780820380516001836020036101000a031916815260200191505b5088810386528d5181528d516020918201918f019080838360005b83811015610fa2578181015183820152602001610f8a565b50505050905090810190601f168015610fcf5780820380516001836020036101000a031916815260200191505b5088810385528c5181528c516020918201918e019080838360005b83811015611002578181015183820152602001610fea565b50505050905090810190601f16801561102f5780820380516001836020036101000a031916815260200191505b5088810384528b5181528b516020918201918d019080838360005b8381101561106257818101518382015260200161104a565b50505050905090810190601f16801561108f5780820380516001836020036101000a031916815260200191505b5088810383528a5181528a516020918201918c019080838360005b838110156110c25781810151838201526020016110aa565b50505050905090810190601f1680156110ef5780820380516001836020036101000a031916815260200191505b5088810382528951815289516020918201918b019080838360005b8381101561112257818101518382015260200161110a565b50505050905090810190601f16801561114f5780820380516001836020036101000a031916815260200191505b509e50505050505050505050505050505060405180910390f35b61120d6004803603602081101561117f57600080fd5b810190602081018135602060020a81111561119957600080fd5b8201836020820111156111ab57600080fd5b803590602001918460018302840111602060020a831117156111cc57600080fd5b91908080601f01602080910402602001604051908101604052809392919081815260200183838082843760009201919091525092955061355b945050505050565b6040518088815260200180602001806020018060200180602001806020018060200187810387528d818151815260200191508051906020019080838360005b8381101561126457818101518382015260200161124c565b50505050905090810190601f1680156112915780820380516001836020036101000a031916815260200191505b5087810386528c5181528c516020918201918e019080838360005b838110156112c45781810151838201526020016112ac565b50505050905090810190601f1680156112f15780820380516001836020036101000a031916815260200191505b5087810385528b5181528b516020918201918d019080838360005b8381101561132457818101518382015260200161130c565b50505050905090810190601f1680156113515780820380516001836020036101000a031916815260200191505b5087810384528a5181528a516020918201918c019080838360005b8381101561138457818101518382015260200161136c565b50505050905090810190601f1680156113b15780820380516001836020036101000a031916815260200191505b5087810383528951815289516020918201918b019080838360005b838110156113e45781810151838201526020016113cc565b50505050905090810190601f1680156114115780820380516001836020036101000a031916815260200191505b5087810382528851815288516020918201918a019080838360005b8381101561144457818101518382015260200161142c565b50505050905090810190601f1680156114715780820380516001836020036101000a031916815260200191505b509d505050505050505050505050505060405180910390f35b6102be613b1a565b6102be613b20565b6102be600480360360208110156114b057600080fd5b810190602081018135602060020a8111156114ca57600080fd5b8201836020820111156114dc57600080fd5b803590602001918460018302840111602060020a831117156114fd57600080fd5b91908080601f016020809104026020016040519081016040528093929190818152602001838380828437600092019190915250929550613b26945050505050565b61155b6004803603602081101561155457600080fd5b5035613c83565b6040805160208082528351818301528351919283929083019185019080838360005b8381101561159557818101518382015260200161157d565b50505050905090810190601f1680156115c25780820380516001836020036101000a031916815260200191505b509250505060405180910390f35b61155b600480360360208110156115e657600080fd5b5035613d43565b61069a6004803603602081101561160357600080fd5b810190602081018135602060020a81111561161d57600080fd5b82018360208201111561162f57600080fd5b803590602001918460018302840111602060020a8311171561165057600080fd5b91908080601f016020809104026020016040519081016040528093929190818152602001838380828437600092019190915250929550613d52945050505050565b6116ae600480360360208110156116a757600080fd5b5035613e17565b6040518080602001806020018060200180602001806020018060200187810387528d818151815260200191508051906020019080838360005b838110156116ff5781810151838201526020016116e7565b50505050905090810190601f16801561172c5780820380516001836020036101000a031916815260200191505b5087810386528c5181528c516020918201918e019080838360005b8381101561175f578181015183820152602001611747565b50505050905090810190601f16801561178c5780820380516001836020036101000a031916815260200191505b5087810385528b5181528b516020918201918d019080838360005b838110156117bf5781810151838201526020016117a7565b50505050905090810190601f1680156117ec5780820380516001836020036101000a031916815260200191505b5087810384528a5181528a516020918201918c019080838360005b8381101561181f578181015183820152602001611807565b50505050905090810190601f16801561184c5780820380516001836020036101000a031916815260200191505b5087810383528951815289516020918201918b019080838360005b8381101561187f578181015183820152602001611867565b50505050905090810190601f1680156118ac5780820380516001836020036101000a031916815260200191505b5087810382528851815288516020918201918a019080838360005b838110156118df5781810151838201526020016118c7565b50505050905090810190601f16801561190c5780820380516001836020036101000a031916815260200191505b509c5050505050505050505050505060405180910390f35b61069a6004803603602081101561193a57600080fd5b810190602081018135602060020a81111561195457600080fd5b82018360208201111561196657600080fd5b803590602001918460018302840111602060020a8311171561198757600080fd5b91908080601f01602080910402602001604051908101604052809392919081815260200183838082843760009201919091525092955061424b945050505050565b6119e5600480360360208110156119de57600080fd5b50356143a1565b60405180806020018060200180602001848103845287818151815260200191508051906020019080838360005b83811015611a2a578181015183820152602001611a12565b50505050905090810190601f168015611a575780820380516001836020036101000a031916815260200191505b50848103835286518152865160209182019188019080838360005b83811015611a8a578181015183820152602001611a72565b50505050905090810190601f168015611ab75780820380516001836020036101000a031916815260200191505b50848103825285518152855160209182019187019080838360005b83811015611aea578181015183820152602001611ad2565b50505050905090810190601f168015611b175780820380516001836020036101000a031916815260200191505b50965050505050505060405180910390f35b6102be6145c5565b61155b60048036036020811015611b4757600080fd5b50356145cb565b6102be60048036036020811015611b6457600080fd5b810190602081018135602060020a811115611b7e57600080fd5b820183602082011115611b9057600080fd5b803590602001918460018302840111602060020a83111715611bb157600080fd5b91908080601f0160208091040260200160405190810160405280939291908181526020018383808284376000920191909152509295506146ba945050505050565b61069a60048036036020811015611c0857600080fd5b810190602081018135602060020a811115611c2257600080fd5b820183602082011115611c3457600080fd5b803590602001918460018302840111602060020a83111715611c5557600080fd5b91908080601f016020809104026020016040519081016040528093929190818152602001838380828437600092019190915250929550614b72945050505050565b6102a260048036036020811015611cac57600080fd5b5035614d0e565b61155b60048036036020811015611cc957600080fd5b810190602081018135602060020a811115611ce357600080fd5b820183602082011115611cf557600080fd5b803590602001918460018302840111602060020a83111715611d1657600080fd5b91908080601f016020809104026020016040519081016040528093929190818152602001838380828437600092019190915250929550614d3a945050505050565b6102be614f16565b61155b60048036036020811015611d7557600080fd5b5035614f1c565b6102be614fc0565b6102be614fc6565b6102be614fcc565b6102a260048036036020811015611daa57600080fd5b5035614fd2565b6102be60048036036020811015611dc757600080fd5b810190602081018135602060020a811115611de157600080fd5b820183602082011115611df357600080fd5b803590602001918460018302840111602060020a83111715611e1457600080fd5b91908080601f016020809104026020016040519081016040528093929190818152602001838380828437600092019190915250929550615018945050505050565b61069a60048036036080811015611e6b57600080fd5b810190602081018135602060020a811115611e8557600080fd5b820183602082011115611e9757600080fd5b803590602001918460018302840111602060020a83111715611eb857600080fd5b91908080601f0160208091040260200160405190810160405280939291908181526020018383808284376000920191909152509295949360208101935035915050602060020a811115611f0a57600080fd5b820183602082011115611f1c57600080fd5b803590602001918460018302840111602060020a83111715611f3d57600080fd5b91908080601f0160208091040260200160405190810160405280939291908181526020018383808284376000920191909152509295949360208101935035915050602060020a811115611f8f57600080fd5b820183602082011115611fa157600080fd5b803590602001918460018302840111602060020a83111715611fc257600080fd5b91908080601f016020809104026020016040519081016040528093929190818152602001838380828437600092019190915250929550509135925061518a915050565b61069a600480360360e081101561201b57600080fd5b810190602081018135602060020a81111561203557600080fd5b82018360208201111561204757600080fd5b803590602001918460018302840111602060020a8311171561206857600080fd5b91908080601f0160208091040260200160405190810160405280939291908181526020018383808284376000920191909152509295949360208101935035915050602060020a8111156120ba57600080fd5b8201836020820111156120cc57600080fd5b803590602001918460018302840111602060020a831117156120ed57600080fd5b91908080601f0160208091040260200160405190810160405280939291908181526020018383808284376000920191909152509295949360208101935035915050602060020a81111561213f57600080fd5b82018360208201111561215157600080fd5b803590602001918460018302840111602060020a8311171561217257600080fd5b91908080601f0160208091040260200160405190810160405280939291908181526020018383808284376000920191909152509295949360208101935035915050602060020a8111156121c457600080fd5b8201836020820111156121d657600080fd5b803590602001918460018302840111602060020a831117156121f757600080fd5b91908080601f0160208091040260200160405190810160405280939291908181526020018383808284376000920191909152509295949360208101935035915050602060020a81111561224957600080fd5b82018360208201111561225b57600080fd5b803590602001918460018302840111602060020a8311171561227c57600080fd5b91908080601f0160208091040260200160405190810160405280939291908181526020018383808284376000920191909152509295949360208101935035915050602060020a8111156122ce57600080fd5b8201836020820111156122e057600080fd5b803590602001918460018302840111602060020a8311171561230157600080fd5b91908080601f0160208091040260200160405190810160405280939291908181526020018383808284376000920191909152509295949360208101935035915050602060020a81111561235357600080fd5b82018360208201111561236557600080fd5b803590602001918460018302840111602060020a8311171561238657600080fd5b91908080601f016020809104026020016040519081016040528093929190818152602001838380828437600092019190915250929550615b95945050505050565b6102be615d47565b6102be615d4d565b6000805b60075481101561254c57826040516020018080602001828103825283818151815260200191508051906020019080838360005b8381101561242657818101518382015260200161240e565b50505050905090810190601f1680156124535780820380516001836020036101000a031916815260200191505b5092505050604051602081830303815290604052805190602001206004828154811061247b57fe5b906000526020600020906007020160010160405160200180806020018281038252838181546001816001161561010002031660029004815260200191508054600181600116156101000203166002900480156125185780601f106124ed57610100808354040283529160200191612518565b820191906000526020600020905b8154815290600101906020018083116124fb57829003601f168201915b505092505050604051602081830303815290604052805190602001201415612544576001915050612552565b6001016123db565b50600090505b919050565b60095481565b866003898154811061256b57fe5b9060005260206000209060080201600101908051906020019061258f929190615d53565b50856003898154811061259e57fe5b906000526020600020906008020160020190805190602001906125c2929190615d53565b5084600389815481106125d157fe5b906000526020600020906008020160030190805190602001906125f5929190615d53565b50836003898154811061260457fe5b90600052602060002090600802016004019080519060200190612628929190615d53565b50826003898154811061263757fe5b9060005260206000209060080201600501908051906020019061265b929190615d53565b50816003898154811061266a57fe5b9060005260206000209060080201600601908051906020019061268e929190615d53565b50806003898154811061269d57fe5b906000526020600020906008020160070190805190602001906126c1929190615d53565b505050505050505050565b6009545b90565b6000805b60095481101561286557826040516020018080602001828103825283818151815260200191508051906020019080838360005b8381101561272257818101518382015260200161270a565b50505050905090810190601f16801561274f5780820380516001836020036101000a031916815260200191505b5092505050604051602081830303815290604052805190602001206002828154811061277757fe5b906000526020600020906003020160010160405160200180806020018281038252838181546001816001161561010002031660029004815260200191508054600181600116156101000203166002900480156128145780601f106127e957610100808354040283529160200191612814565b820191906000526020600020905b8154815290600101906020018083116127f757829003601f168201915b50509250505060405160208183030381529060405280519060200120141561285d576002818154811061284357fe5b906000526020600020906003020160000154915050612552565b6001016126d7565b50919050565b612873615dd1565b506040805160e08101825260078054825260208083018a8152938301899052606083018890526080830187905260a0830186905260c083018590526004805460018101808355600092909252845193027f8a35acfbc15ff81a39ae7d344fd709f28e8600b4aa8c65c6b64bfe7fe36bd19b81019384559451805194959194869493612922937f8a35acfbc15ff81a39ae7d344fd709f28e8600b4aa8c65c6b64bfe7fe36bd19c01920190615d53565b506040820151805161293e916002840191602090910190615d53565b506060820151805161295a916003840191602090910190615d53565b5060808201518051612976916004840191602090910190615d53565b5060a08201518051612992916005840191602090910190615d53565b5060c082015180516129ae916006840191602090910190615d53565b5050600780546001019055506129c49050615e0e565b5060408051608081018252600654815260208082018a815292820189905260608201859052600080546001810180835591805283517f290decd9548b62a8d60345a988386fc84ba6bc95484008f6362f93160ef3e563600490920291820190815594518051949592948694612a5d937f290decd9548b62a8d60345a988386fc84ba6bc95484008f6362f93160ef3e56401920190615d53565b5060408201518051612a79916002840191602090910190615d53565b5060608201518051612a95916003840191602090910190615d53565b505060068054600101905550505050505050505050565b60005b600954811015612ee757816040516020018080602001828103825283818151815260200191508051906020019080838360005b83811015612afa578181015183820152602001612ae2565b50505050905090810190601f168015612b275780820380516001836020036101000a031916815260200191505b50925050506040516020818303038152906040528051906020012060028281548110612b4f57fe5b90600052602060002090600302016001016040516020018080602001828103825283818154600181600116156101000203166002900481526020019150805460018160011615610100020316600290048015612bec5780601f10612bc157610100808354040283529160200191612bec565b820191906000526020600020905b815481529060010190602001808311612bcf57829003601f168201915b505092505050604051602081830303815290604052805190602001201415612edf57600060028281548110612c1d57fe5b60009182526020909120600390910201600201805460ff1916911515919091179055805b600160095403811015612ecf5760028160010181548110612c5e57fe5b600091825260209091206002600390920201015460ff16151560011415612ec757600060028281548110612c8e57fe5b9060005260206000209060030201600001549050606060028381548110612cb157fe5b90600052602060002090600302016001018054600181600116156101000203166002900480601f016020809104026020016040519081016040528092919081815260200182805460018160011615610100020316600290048015612d565780601f10612d2b57610100808354040283529160200191612d56565b820191906000526020600020905b815481529060010190602001808311612d3957829003601f168201915b5050505050905060028360010181548110612d6d57fe5b90600052602060002090600302016000015460028481548110612d8c57fe5b60009182526020909120600390910201556002805460018501908110612dae57fe5b906000526020600020906003020160010160028481548110612dcc57fe5b90600052602060002090600302016001019080546001816001161561010002031660029004612dfc929190615e36565b50600160028481548110612e0c57fe5b906000526020600020906003020160020160006101000a81548160ff0219169083151502179055508160028460010181548110612e4557fe5b9060005260206000209060030201600001819055508060028460010181548110612e6b57fe5b90600052602060002090600302016001019080519060200190612e8f929190615d53565b50600060028460010181548110612ea257fe5b60009182526020909120600390910201600201805460ff191691151591909117905550505b600101612c41565b5060098054600019019055612ee7565b600101612aaf565b5050565b612ef3615eab565b506040805161010081018252600754815260208082018a8152928201898152606083018990526080830188905260a0830187905260c0830186905260e083018590526005805460018101808355600092909252845160089091027f036b6384b5eca791c62761152d0c79bb0604c104a5fb6f4eb0703f3154bb3db0810191825595517f036b6384b5eca791c62761152d0c79bb0604c104a5fb6f4eb0703f3154bb3db187015591518051949591948694612fd1937f036b6384b5eca791c62761152d0c79bb0604c104a5fb6f4eb0703f3154bb3db201920190615d53565b5060608201518051612fed916003840191602090910190615d53565b5060808201518051613009916004840191602090910190615d53565b5060a08201518051613025916005840191602090910190615d53565b5060c08201518051613041916006840191602090910190615d53565b5060e0820151805161305d916007840191602090910190615d53565b5050600b8054600101905550505050505050505050565b60608060608060608060606003888154811061308c57fe5b9060005260206000209060080201600101600389815481106130aa57fe5b906000526020600020906008020160020160038a815481106130c857fe5b906000526020600020906008020160030160038b815481106130e657fe5b906000526020600020906008020160040160038c8154811061310457fe5b906000526020600020906008020160050160038d8154811061312257fe5b906000526020600020906008020160060160038e8154811061314057fe5b9060005260206000209060080201600701868054600181600116156101000203166002900480601f0160208091040260200160405190810160405280929190818152602001828054600181600116156101000203166002900480156131e65780601f106131bb576101008083540402835291602001916131e6565b820191906000526020600020905b8154815290600101906020018083116131c957829003601f168201915b5050895460408051602060026001851615610100026000190190941693909304601f8101849004840282018401909252818152959c508b9450925084019050828280156132745780601f1061324957610100808354040283529160200191613274565b820191906000526020600020905b81548152906001019060200180831161325757829003601f168201915b5050885460408051602060026001851615610100026000190190941693909304601f8101849004840282018401909252818152959b508a9450925084019050828280156133025780601f106132d757610100808354040283529160200191613302565b820191906000526020600020905b8154815290600101906020018083116132e557829003601f168201915b5050875460408051602060026001851615610100026000190190941693909304601f8101849004840282018401909252818152959a50899450925084019050828280156133905780601f1061336557610100808354040283529160200191613390565b820191906000526020600020905b81548152906001019060200180831161337357829003601f168201915b5050865460408051602060026001851615610100026000190190941693909304601f81018490048402820184019092528181529599508894509250840190508282801561341e5780601f106133f35761010080835404028352916020019161341e565b820191906000526020600020905b81548152906001019060200180831161340157829003601f168201915b5050855460408051602060026001851615610100026000190190941693909304601f8101849004840282018401909252818152959850879450925084019050828280156134ac5780601f10613481576101008083540402835291602001916134ac565b820191906000526020600020905b81548152906001019060200180831161348f57829003601f168201915b5050845460408051602060026001851615610100026000190190941693909304601f81018490048402820184019092528181529597508694509250840190508282801561353a5780601f1061350f5761010080835404028352916020019161353a565b820191906000526020600020905b81548152906001019060200180831161351d57829003601f168201915b5050505050905096509650965096509650965096505b919395979092949650565b600060608080808080865b600854811015613b0e57886040516020018080602001828103825283818151815260200191508051906020019080838360005b838110156135b1578181015183820152602001613599565b50505050905090810190601f1680156135de5780820380516001836020036101000a031916815260200191505b5092505050604051602081830303815290604052805190602001206003828154811061360657fe5b600091825260209182902060408051808501948552600460089094029092019290920180546002600019610100600184161502019091160492820183905292918291606001908490801561369b5780601f106136705761010080835404028352916020019161369b565b820191906000526020600020905b81548152906001019060200180831161367e57829003601f168201915b505092505050604051602081830303815290604052805190602001201415613b0657600381815481106136ca57fe5b906000526020600020906008020160000154600382815481106136e957fe5b90600052602060002090600802016001016003838154811061370757fe5b90600052602060002090600802016002016003848154811061372557fe5b90600052602060002090600802016003016003858154811061374357fe5b90600052602060002090600802016005016003868154811061376157fe5b90600052602060002090600802016006016003878154811061377f57fe5b9060005260206000209060080201600701858054600181600116156101000203166002900480601f0160208091040260200160405190810160405280929190818152602001828054600181600116156101000203166002900480156138255780601f106137fa57610100808354040283529160200191613825565b820191906000526020600020905b81548152906001019060200180831161380857829003601f168201915b5050885460408051602060026001851615610100026000190190941693909304601f8101849004840282018401909252818152959b508a9450925084019050828280156138b35780601f10613888576101008083540402835291602001916138b3565b820191906000526020600020905b81548152906001019060200180831161389657829003601f168201915b5050875460408051602060026001851615610100026000190190941693909304601f8101849004840282018401909252818152959a50899450925084019050828280156139415780601f1061391657610100808354040283529160200191613941565b820191906000526020600020905b81548152906001019060200180831161392457829003601f168201915b5050865460408051602060026001851615610100026000190190941693909304601f8101849004840282018401909252818152959950889450925084019050828280156139cf5780601f106139a4576101008083540402835291602001916139cf565b820191906000526020600020905b8154815290600101906020018083116139b257829003601f168201915b5050855460408051602060026001851615610100026000190190941693909304601f810184900484028201840190925281815295985087945092508401905082828015613a5d5780601f10613a3257610100808354040283529160200191613a5d565b820191906000526020600020905b815481529060010190602001808311613a4057829003601f168201915b5050845460408051602060026001851615610100026000190190941693909304601f810184900484028201840190925281815295975086945092508401905082828015613aeb5780601f10613ac057610100808354040283529160200191613aeb565b820191906000526020600020905b815481529060010190602001808311613ace57829003601f168201915b50505050509050975097509750975097509750975050613550565b600101613566565b50919395979092949650565b600a5490565b60085490565b6000805b60075481101561286557826040516020018080602001828103825283818151815260200191508051906020019080838360005b83811015613b75578181015183820152602001613b5d565b50505050905090810190601f168015613ba25780820380516001836020036101000a031916815260200191505b50925050506040516020818303038152906040528051906020012060048281548110613bca57fe5b90600052602060002090600702016001016040516020018080602001828103825283818154600181600116156101000203166002900481526020019150805460018160011615610100020316600290048015613c675780601f10613c3c57610100808354040283529160200191613c67565b820191906000526020600020905b815481529060010190602001808311613c4a57829003601f168201915b505060408051601f198184030190525250505050600101613b2a565b606060028281548110613c9257fe5b90600052602060002090600302016001018054600181600116156101000203166002900480601f016020809104026020016040519081016040528092919081815260200182805460018160011615610100020316600290048015613d375780601f10613d0c57610100808354040283529160200191613d37565b820191906000526020600020905b815481529060010190602001808311613d1a57829003601f168201915b50505050509050919050565b606060018281548110613c9257fe5b613d5a615ef0565b5060408051606081018252600a54815260208082018481526001938301849052835480850180865560009590955283517fb10e2d527612073b26eecdfd717e6a320cf44b4afac2b0732d9fcbe2b7fa0cf66003909202918201908155915180519495948694613ded937fb10e2d527612073b26eecdfd717e6a320cf44b4afac2b0732d9fcbe2b7fa0cf701920190615d53565b50604091909101516002909101805460ff19169115159190911790555050600a8054600101905550565b60608060608060608060048781548110613e2d57fe5b906000526020600020906007020160010160048881548110613e4b57fe5b906000526020600020906007020160020160048981548110613e6957fe5b906000526020600020906007020160030160048a81548110613e8757fe5b906000526020600020906007020160040160048b81548110613ea557fe5b906000526020600020906007020160050160048c81548110613ec357fe5b9060005260206000209060070201600601858054600181600116156101000203166002900480601f016020809104026020016040519081016040528092919081815260200182805460018160011615610100020316600290048015613f695780601f10613f3e57610100808354040283529160200191613f69565b820191906000526020600020905b815481529060010190602001808311613f4c57829003601f168201915b5050885460408051602060026001851615610100026000190190941693909304601f8101849004840282018401909252818152959b508a945092508401905082828015613ff75780601f10613fcc57610100808354040283529160200191613ff7565b820191906000526020600020905b815481529060010190602001808311613fda57829003601f168201915b5050875460408051602060026001851615610100026000190190941693909304601f8101849004840282018401909252818152959a50899450925084019050828280156140855780601f1061405a57610100808354040283529160200191614085565b820191906000526020600020905b81548152906001019060200180831161406857829003601f168201915b5050865460408051602060026001851615610100026000190190941693909304601f8101849004840282018401909252818152959950889450925084019050828280156141135780601f106140e857610100808354040283529160200191614113565b820191906000526020600020905b8154815290600101906020018083116140f657829003601f168201915b5050855460408051602060026001851615610100026000190190941693909304601f8101849004840282018401909252818152959850879450925084019050828280156141a15780601f10614176576101008083540402835291602001916141a1565b820191906000526020600020905b81548152906001019060200180831161418457829003601f168201915b5050845460408051602060026001851615610100026000190190941693909304601f81018490048402820184019092528181529597508694509250840190508282801561422f5780601f106142045761010080835404028352916020019161422f565b820191906000526020600020905b81548152906001019060200180831161421257829003601f168201915b5050505050905095509550955095509550955091939550919395565b614253615ef0565b50604080516060810182526009548152602080820184815260019383018490526002805494850180825560009190915283517f405787fa12a823e0f2b7631cc41b3ba8828b3321ca811111fa75cd3aa3bb5ace6003909602958601908155915180519495919486946142e9937f405787fa12a823e0f2b7631cc41b3ba8828b3321ca811111fa75cd3aa3bb5acf01920190615d53565b50604091909101516002918201805460ff191691151591909117905560095481549092508290811061431757fe5b9060005260206000209060030201600001819055508160026009548154811061433c57fe5b90600052602060002090600302016001019080519060200190614360929190615d53565b50600160026009548154811061437257fe5b60009182526020909120600390910201600201805460ff19169115159190911790555050600980546001019055565b6060806060600084815481106143b357fe5b9060005260206000209060040201600101600085815481106143d157fe5b9060005260206000209060040201600201600086815481106143ef57fe5b9060005260206000209060040201600301828054600181600116156101000203166002900480601f0160208091040260200160405190810160405280929190818152602001828054600181600116156101000203166002900480156144955780601f1061446a57610100808354040283529160200191614495565b820191906000526020600020905b81548152906001019060200180831161447857829003601f168201915b5050855460408051602060026001851615610100026000190190941693909304601f8101849004840282018401909252818152959850879450925084019050828280156145235780601f106144f857610100808354040283529160200191614523565b820191906000526020600020905b81548152906001019060200180831161450657829003601f168201915b5050845460408051602060026001851615610100026000190190941693909304601f8101849004840282018401909252818152959750869450925084019050828280156145b15780601f10614586576101008083540402835291602001916145b1565b820191906000526020600020905b81548152906001019060200180831161459457829003601f168201915b505050505090509250925092509193909250565b60085481565b606060005b600b548110156128655782600582815481106145e857fe5b90600052602060002090600802016001015414156146b2576005818154811061460d57fe5b600091825260209182902060026008909202018101805460408051601f6000196101006001861615020190931694909404918201859004850284018501905280835291929091908301828280156146a55780601f1061467a576101008083540402835291602001916146a5565b820191906000526020600020905b81548152906001019060200180831161468857829003601f168201915b5050505050915050612552565b6001016145d0565b6000805b60085481101561254c57826040516020018080602001828103825283818151815260200191508051906020019080838360005b838110156147095781810151838201526020016146f1565b50505050905090810190601f1680156147365780820380516001836020036101000a031916815260200191505b5092505050604051602081830303815290604052805190602001206003828154811061475e57fe5b60009182526020918290206040805180850194855260046008909402909201929092018054600260001961010060018416150201909116049282018390529291829160600190849080156147f35780601f106147c8576101008083540402835291602001916147f3565b820191906000526020600020905b8154815290600101906020018083116147d657829003601f168201915b505092505050604051602081830303815290604052805190602001201415614b6a5760405160200180806020018281038252601f8152602001807fd0a1d0bed182d180d183d0b4d0bdd0b8d0ba20d0bed182d0b4d0b5d0bbd0b000815250602001915050604051602081830303815290604052805190602001206003828154811061487a57fe5b600091825260209182902060408051808501948552600760089094029092019290920180546002600019610100600184161502019091160492820183905292918291606001908490801561490f5780601f106148e45761010080835404028352916020019161490f565b820191906000526020600020905b8154815290600101906020018083116148f257829003601f168201915b50509250505060405160208183030381529060405280519060200120141561493b576001915050612552565b60405160200180806020018281038252602f815260200180615f73602f9139604001915050604051602081830303815290604052805190602001206003828154811061498357fe5b6000918252602091829020604080518085019485526007600890940290920192909201805460026000196101006001841615020190911604928201839052929182916060019084908015614a185780601f106149ed57610100808354040283529160200191614a18565b820191906000526020600020905b8154815290600101906020018083116149fb57829003601f168201915b505092505050604051602081830303815290604052805190602001201415614a44576002915050612552565b60405160200180806020018281038252601f8152602001807fd09dd0b0d187d0b0d0bbd18cd0bdd0b8d0ba20d0bed182d0b4d0b5d0bbd0b0008152506020019150506040516020818303038152906040528051906020012060038281548110614aa957fe5b6000918252602091829020604080518085019485526007600890940290920192909201805460026000196101006001841615020190911604928201839052929182916060019084908015614b3e5780601f10614b1357610100808354040283529160200191614b3e565b820191906000526020600020905b815481529060010190602001808311614b2157829003601f168201915b505092505050604051602081830303815290604052805190602001201415614b6a576003915050612552565b6001016146be565b60005b600a54811015612ee757816040516020018080602001828103825283818151815260200191508051906020019080838360005b83811015614bc0578181015183820152602001614ba8565b50505050905090810190601f168015614bed5780820380516001836020036101000a031916815260200191505b50925050506040516020818303038152906040528051906020012060018281548110614c1557fe5b90600052602060002090600302016001016040516020018080602001828103825283818154600181600116156101000203166002900481526020019150805460018160011615610100020316600290048015614cb25780601f10614c8757610100808354040283529160200191614cb2565b820191906000526020600020905b815481529060010190602001808311614c9557829003601f168201915b505092505050604051602081830303815290604052805190602001201415614d0657600060018281548110614ce357fe5b60009182526020909120600390910201600201805460ff19169115159190911790555b600101614b75565b600060028281548110614d1d57fe5b600091825260209091206003909102016002015460ff1692915050565b606060005b60085481101561286557826040516020018080602001828103825283818151815260200191508051906020019080838360005b83811015614d8a578181015183820152602001614d72565b50505050905090810190601f168015614db75780820380516001836020036101000a031916815260200191505b50925050506040516020818303038152906040528051906020012060038281548110614ddf57fe5b6000918252602091829020604080518085019485526004600890940290920192909201805460026000196101006001841615020190911604928201839052929182916060019084908015614e745780601f10614e4957610100808354040283529160200191614e74565b820191906000526020600020905b815481529060010190602001808311614e5757829003601f168201915b505092505050604051602081830303815290604052805190602001201415614f0e5760038181548110614ea357fe5b6000918252602091829020600560089092020101805460408051601f60026000196101006001871615020190941693909304928301859004850281018501909152818152928301828280156146a55780601f1061467a576101008083540402835291602001916146a5565b600101614d3f565b60065490565b606060018281548110614f2b57fe5b600091825260209091206002600390920201015460ff16151560011415614f86575060408051808201909152600481527f74727565000000000000000000000000000000000000000000000000000000006020820152612552565b5060408051808201909152600581527f66616c73650000000000000000000000000000000000000000000000000000006020820152612552565b60065481565b60075490565b600a5481565b6000805b600b5481101561254c578260058281548110614fee57fe5b9060005260206000209060080201600101541415615010576001915050612552565b600101614fd6565b6000805b60075481101561286557826040516020018080602001828103825283818151815260200191508051906020019080838360005b8381101561506757818101518382015260200161504f565b50505050905090810190601f1680156150945780820380516001836020036101000a031916815260200191505b509250505060405160208183030381529060405280519060200120600482815481106150bc57fe5b906000526020600020906007020160010160405160200180806020018281038252838181546001816001161561010002031660029004815260200191508054600181600116156101000203166002900480156151595780601f1061512e57610100808354040283529160200191615159565b820191906000526020600020905b81548152906001019060200180831161513c57829003601f168201915b505092505050604051602081830303815290604052805190602001201415615182579050612552565b60010161501c565b60005b6007548110156157a457846040516020018080602001828103825283818151815260200191508051906020019080838360005b838110156151d85781810151838201526020016151c0565b50505050905090810190601f1680156152055780820380516001836020036101000a031916815260200191505b5092505050604051602081830303815290604052805190602001206004828154811061522d57fe5b906000526020600020906007020160010160405160200180806020018281038252838181546001816001161561010002031660029004815260200191508054600181600116156101000203166002900480156152ca5780601f1061529f576101008083540402835291602001916152ca565b820191906000526020600020905b8154815290600101906020018083116152ad57829003601f168201915b50509250505060405160208183030381529060405280519060200120141561579c5760005b60095481101561579a57846040516020018080602001828103825283818151815260200191508051906020019080838360005b8381101561533a578181015183820152602001615322565b50505050905090810190601f1680156153675780820380516001836020036101000a031916815260200191505b5092505050604051602081830303815290604052805190602001206002828154811061538f57fe5b9060005260206000209060030201600101604051602001808060200182810382528381815460018160011615610100020316600290048152602001915080546001816001161561010002031660029004801561542c5780601f106154015761010080835404028352916020019161542c565b820191906000526020600020905b81548152906001019060200180831161540f57829003601f168201915b50509250505060405160208183030381529060405280519060200120141561579257826001141561557c5760606004838154811061546657fe5b6000918252602091829020600560079092020101805460408051601f60026000196101006001871615020190941693909304928301859004850281018501909152818152928301828280156154fc5780601f106154d1576101008083540402835291602001916154fc565b820191906000526020600020905b8154815290600101906020018083116154df57829003601f168201915b505050505090507f310000000000000000000000000000000000000000000000000000000000000081838151811061553057fe5b6020010190600160f860020a031916908160001a905350806004848154811061555557fe5b90600052602060002090600702016005019080519060200190615579929190615d53565b50505b82600214156156ae5760606004838154811061559457fe5b6000918252602091829020600560079092020101805460408051601f600260001961010060018716150201909416939093049283018590048502810185019091528181529283018282801561562a5780601f106155ff5761010080835404028352916020019161562a565b820191906000526020600020905b81548152906001019060200180831161560d57829003601f168201915b505050505090507f320000000000000000000000000000000000000000000000000000000000000081838151811061565e57fe5b6020010190600160f860020a031916908160001a905350806004848154811061568357fe5b906000526020600020906007020160050190805190602001906156a7929190615d53565b5050615792565b8260041415615720576040518060400160405280600881526020017f617070726f766564000000000000000000000000000000000000000000000000815250600483815481106156fa57fe5b9060005260206000209060070201600501908051906020019061571e929190615d53565b505b8260031415615792576040518060400160405280600881526020017f72656a65637465640000000000000000000000000000000000000000000000008152506004838154811061576c57fe5b90600052602060002090600702016005019080519060200190615790929190615d53565b505b6001016152ef565b505b60010161518d565b508060011415615b8f576000805b600654811015615a9f57856040516020018080602001828103825283818151815260200191508051906020019080838360005b838110156157fd5781810151838201526020016157e5565b50505050905090810190601f16801561582a5780820380516001836020036101000a031916815260200191505b5092505050604051602081830303815290604052805190602001206000828154811061585257fe5b906000526020600020906004020160010160405160200180806020018281038252838181546001816001161561010002031660029004815260200191508054600181600116156101000203166002900480156158ef5780601f106158c4576101008083540402835291602001916158ef565b820191906000526020600020905b8154815290600101906020018083116158d257829003601f168201915b50509250505060405160208183030381529060405280519060200120148015615a5a5750846040516020018080602001828103825283818151815260200191508051906020019080838360005b8381101561595457818101518382015260200161593c565b50505050905090810190601f1680156159815780820380516001836020036101000a031916815260200191505b509250505060405160208183030381529060405280519060200120600082815481106159a957fe5b600091825260209182902060408051808501948552600260049094029092018301805460001961010060018316150201169390930490820181905291929182916060019084908015615a3c5780601f10615a1157610100808354040283529160200191615a3c565b820191906000526020600020905b815481529060010190602001808311615a1f57829003601f168201915b50509250505060405160208183030381529060405280519060200120145b15615a97578360008281548110615a6d57fe5b90600052602060002090600402016003019080519060200190615a91929190615d53565b50600191505b6001016157b2565b5080615b8d57615aad615e0e565b50604080516080810182526006548152602080820188815292820187905260608201869052600080546001810180835591805283517f290decd9548b62a8d60345a988386fc84ba6bc95484008f6362f93160ef3e563600490920291820190815594518051949592948694615b46937f290decd9548b62a8d60345a988386fc84ba6bc95484008f6362f93160ef3e56401920190615d53565b5060408201518051615b62916002840191602090910190615d53565b5060608201518051615b7e916003840191602090910190615d53565b50506006805460010190555050505b505b50505050565b615b9d615f13565b50604080516101008101825260088054825260208083018b81529383018a9052606083018990526080830188905260a0830187905260c0830186905260e083018590526003805460018101808355600092909252845193027fc2575a0e9e593c00f959f8c92f12db2869c3395a3b0502d05e2516446f71f85b81019384559451805194959194869493615c54937fc2575a0e9e593c00f959f8c92f12db2869c3395a3b0502d05e2516446f71f85c01920190615d53565b5060408201518051615c70916002840191602090910190615d53565b5060608201518051615c8c916003840191602090910190615d53565b5060808201518051615ca8916004840191602090910190615d53565b5060a08201518051615cc4916005840191602090910190615d53565b5060c08201518051615ce0916006840191602090910190615d53565b5060e08201518051615cfc916007840191602090910190615d53565b505060088054600c8054600181810183556000929092527fdf6966c971051c3d54ec59162606531493a51404a002842f56009d7e5cf4a8c70182905501905550505050505050505050565b60075481565b600b5481565b828054600181600116156101000203166002900490600052602060002090601f016020900481019282601f10615d9457805160ff1916838001178555615dc1565b82800160010185558215615dc1579182015b82811115615dc1578251825591602001919060010190615da6565b50615dcd929150615f58565b5090565b6040518060e00160405280600081526020016060815260200160608152602001606081526020016060815260200160608152602001606081525090565b6040518060800160405280600081526020016060815260200160608152602001606081525090565b828054600181600116156101000203166002900490600052602060002090601f016020900481019282601f10615e6f5780548555615dc1565b82800160010185558215615dc157600052602060002091601f016020900482015b82811115615dc1578254825591600101919060010190615e90565b60405180610100016040528060008152602001600081526020016060815260200160608152602001606081526020016060815260200160608152602001606081525090565b604051806060016040528060008152602001606081526020016000151581525090565b60405180610100016040528060008152602001606081526020016060815260200160608152602001606081526020016060815260200160608152602001606081525090565b6126d091905b80821115615dcd5760008155600101615f5e56fed0a0d183d0bad0bed0b2d0bed0b4d0b8d182d0b5d0bbd18c20d0bed180d0b3d0b0d0bdd0b8d0b7d0b0d186d0b8d0b8a165627a7a72305820a07cf263bb67d32807b66ab8c1bfaf6aa850291512b643547c8a592190dddcdf0029",
  "source": "pragma solidity >=0.5.0 <0.6.0;\r\n\r\ncontract AdminInfoContract{\r\n\r\n    \r\n    struct DepartmentSctruct {\r\n        uint departmentID;\r\n        string departmentName;\r\n        bool departmentStatus;\r\n    }\r\n\r\n    struct PositionStruct {\r\n        uint positionID;\r\n        string positionName;\r\n        bool positionStatus;\r\n    }\r\n\r\n    struct EmployeeStruct {\r\n        uint employeeID;\r\n        string Surname;\r\n        string Name;\r\n        string MiddleName;\r\n        string Addr;\r\n        string Department;\r\n        string Position;\r\n        string Status;\r\n\r\n    }\r\n\r\n    struct DocumentStruct{\r\n        uint documentID;\r\n        string documentName;\r\n        string documentDepartment;\r\n        string documentHash;\r\n        string creator;\r\n        string documentStatus;\r\n        string time;\r\n    }\r\n\r\n    struct DocumentStructRef{\r\n        uint documentIDRef;\r\n        uint documentIDfromDocumentStruct;\r\n        string documentName;\r\n        string documentDepartment;\r\n        string documentHash;\r\n        string creator;\r\n        string documentStatus;\r\n        string time;\r\n    }\r\n\r\n\r\n    struct DocVerification{\r\n        uint VerificationID;\r\n        string docName;\r\n        string depName;\r\n        string verificationtime;\r\n    }\r\n\r\n    DocVerification[] verificationslist;\r\n    PositionStruct[] positionsList ;\r\n    DepartmentSctruct[] departmentList;\r\n    EmployeeStruct[] employeeList;\r\n    DocumentStruct[] documentList;\r\n    DocumentStructRef[] documentListRef;\r\n   \r\n    uint public VerificationID = 0;\r\n    uint public documentID = 0;\r\n    uint public employeeID = 0;\r\n    uint public departmentID = 0;\r\n    uint public positionID = 0;\r\n    uint public documentIDRef = 0;\r\n\r\n\r\n\r\n    uint[] employeeNumber;\r\n    uint[] departmentNumber;\r\n    uint[] positionNumber;\r\n\r\n\r\n\r\n    function CreateDocumentRef (uint ID, string memory _name, string memory _dep, string memory _hash, string  memory _acc, string memory _stat,  string memory _time) public {\r\n        DocumentStructRef memory newDocument = DocumentStructRef({documentIDRef: documentID, documentIDfromDocumentStruct: ID,  documentName: _name, documentDepartment: _dep, documentHash: _hash, creator:_acc, documentStatus: _stat, time: _time});\r\n        documentListRef.push(newDocument);\r\n        documentIDRef = documentIDRef + 1;\r\n    }\r\n\r\n    function CheckDocRef(uint ID) public view returns (bool){\r\n        for (uint i = 0; i < documentIDRef; i++){\r\n            if (documentListRef[i].documentIDfromDocumentStruct == ID){\r\n                return true;\r\n            }\r\n        }\r\n        return false;\r\n    }\r\n\r\n    function GetDocRefName (uint ID) public view returns (string memory){\r\n        for (uint i = 0; i < documentIDRef; i++){\r\n            if (documentListRef[i].documentIDfromDocumentStruct == ID){\r\n                return documentListRef[i].documentName;\r\n            }\r\n        }\r\n    }\r\n\r\n    function GetDocID (string memory name) public view returns (uint){\r\n        for (uint i = 0; i < documentID; i++){\r\n            if (keccak256(abi.encode(documentList[i].documentName)) == keccak256(abi.encode(name))){\r\n                return i;\r\n            }\r\n        }\r\n    }\r\n    function CreateDocument (string memory _name, string memory _dep, string memory _hash, string  memory _acc, string memory _stat,  string memory _time) public {\r\n        DocumentStruct memory newDocument = DocumentStruct({documentID: documentID, documentName: _name, documentDepartment: _dep, documentHash: _hash, creator:_acc, documentStatus: _stat, time: _time});\r\n        documentList.push(newDocument);\r\n        documentID = documentID + 1;\r\n\r\n        DocVerification memory newVerification = DocVerification({VerificationID: VerificationID, docName: _name, depName: _dep, verificationtime: _time});\r\n        verificationslist.push(newVerification);\r\n        VerificationID = VerificationID + 1;\r\n    }\r\n    function CheckDocumentUnique(string memory _name ) public view returns(bool){\r\n        for (uint i = 0; i < documentID; i++){\r\n            if (keccak256(abi.encode(documentList[i].documentName)) == keccak256(abi.encode(_name))){\r\n                return true;\r\n            }\r\n        }\r\n        return false;\r\n    }\r\n\r\n    function GetDocumentInfoByID (uint i) public view returns(string memory, string memory, string memory, string memory, string memory, string memory) {\r\n\r\n                return(\r\n                documentList[i].documentName,\r\n                documentList[i].documentDepartment,\r\n                documentList[i].documentHash,\r\n                documentList[i].creator,\r\n                documentList[i].documentStatus,\r\n                documentList[i].time);\r\n    }\r\n\r\n    function GetDepartmentID(string memory _dep) public view returns (uint){\r\n        for (uint i = 0; i < departmentID; i++){\r\n            if (keccak256(abi.encode(departmentList[i].departmentName)) == keccak256((abi.encode(_dep)))){\r\n                return departmentList[i].departmentID;\r\n            }\r\n        }\r\n    }\r\n\r\n\r\n    function UpdateDocStatus (string memory _name, string memory _dep, string memory _time, uint res) public {\r\n        for (uint i = 0; i < documentID; i++){\r\n            if (keccak256(abi.encode(documentList[i].documentName)) == keccak256(abi.encode(_name))){\r\n                for (uint j = 0; j < departmentID; j++){\r\n                    if (keccak256(abi.encode(departmentList[j].departmentName)) == keccak256(abi.encode(_dep))){\r\n                        if (res == 1){\r\n                            string memory tmp = documentList[i].documentStatus;\r\n                            bytes (tmp)[j] = '1';\r\n                            documentList[i].documentStatus = tmp;\r\n\r\n                        }\r\n                        if (res == 2){\r\n\r\n                            string memory tmp = documentList[i].documentStatus;\r\n                            bytes (tmp)[j] = '2';\r\n                            documentList[i].documentStatus = tmp;\r\n\r\n                        }else {\r\n                                if (res == 4){\r\n                                    documentList[i].documentStatus = \"approved\";\r\n                                }  \r\n                                if (res == 3){\r\n                                    documentList[i].documentStatus = \"rejected\";\r\n                                }\r\n\r\n                        }\r\n                    }\r\n                }\r\n            }\r\n        }\r\n        \r\n\r\n        if (res == 1){\r\n            bool checker = false;\r\n        for (uint i = 0; i < VerificationID; i++){\r\n            if ((keccak256(abi.encode(verificationslist[i].docName)) == keccak256(abi.encode(_name))) && ((keccak256(abi.encode(verificationslist[i].depName)) == keccak256(abi.encode(_dep))))){\r\n                verificationslist[i].verificationtime = _time;\r\n                checker = true;\r\n            }\r\n        }\r\n        if (checker == false){\r\n             DocVerification memory newVerification = DocVerification({VerificationID: VerificationID, docName: _name, depName: _dep, verificationtime: _time});\r\n             verificationslist.push(newVerification);\r\n             VerificationID = VerificationID + 1;\r\n        }\r\n        }\r\n\r\n\r\n    }\r\n\r\n    function GetVerificationsCount () public view returns (uint){\r\n        return VerificationID;\r\n    }\r\n\r\n    function getVerificationInfo (uint id) public view returns (string memory, string memory, string memory){\r\n        return( verificationslist[id].docName,\r\n                verificationslist[id].depName,\r\n                verificationslist[id].verificationtime);\r\n\r\n    }\r\n\r\n    function GetDocumentsCount() public view returns (uint) {\r\n        return documentID;\r\n    }\r\n\r\n\r\n    function GetDocVerifications(string memory _name) public view returns (uint){\r\n        for (uint i = 0; i < documentID; i++){\r\n            if (keccak256(abi.encode(documentList[i].documentName)) == keccak256(abi.encode(_name))){\r\n\r\n            }\r\n        }\r\n    }\r\n\r\n    function CreateEmployee (\r\n        string memory _surname,\r\n        string memory _name,\r\n        string memory _middlename,\r\n        string memory _addr,\r\n        string memory _department,\r\n        string memory _position,\r\n        string memory _status) public\r\n    {\r\n        \r\n        EmployeeStruct memory newEmployee = EmployeeStruct({\r\n            employeeID: employeeID, \r\n            Surname: _surname,\r\n            Name: _name,\r\n            MiddleName: _middlename,\r\n            Addr: _addr,\r\n            Department: _department,\r\n            Position: _position,\r\n            Status: _status });\r\n        employeeList.push(newEmployee);\r\n        employeeNumber.push(employeeID);\r\n        employeeID = employeeID + 1;\r\n\r\n\r\n    }\r\n\r\n    function UpdateEmployeeInfo(\r\n        uint id,\r\n        string memory _surname,\r\n        string memory _name,\r\n        string memory _middlename,\r\n        string memory _addr,\r\n        string memory _department,\r\n        string memory _position,\r\n        string memory _status) public\r\n    {\r\n        employeeList[id].Surname = _surname;\r\n        employeeList[id].Name = _name;\r\n        employeeList[id].MiddleName = _middlename;\r\n        employeeList[id].Addr = _addr;\r\n        employeeList[id].Department = _department;\r\n        employeeList[id].Position = _position;\r\n        employeeList[id].Status = _status;\r\n    }\r\n\r\n    function CreatePosition(string memory _title) public{\r\n        PositionStruct memory newPosition = PositionStruct({positionID: positionID, positionName: _title, positionStatus: true});\r\n        positionsList.push(newPosition);\r\n       \r\n        positionID = positionID + 1;\r\n    }\r\n\r\n    function CreateDepartment(string memory _title) public{\r\n        DepartmentSctruct memory newDepartment = DepartmentSctruct({departmentID: departmentID, departmentName: _title, departmentStatus: true});\r\n        departmentList.push(newDepartment);\r\n        departmentList[departmentID].departmentID = departmentID;\r\n        departmentList[departmentID].departmentName = _title;\r\n        departmentList[departmentID].departmentStatus = true;\r\n        departmentID = departmentID + 1;\r\n    }\r\n\r\n\r\n\r\n    function DeletePositionName(string memory _name) public {\r\n        for (uint i = 0; i < positionID; i++){\r\n            if (keccak256(abi.encode(positionsList[i].positionName)) == keccak256(abi.encode(_name))){\r\n                positionsList[i].positionStatus = false;\r\n            }\r\n        }\r\n    }\r\n\r\n      function DeleteDepartmentName(string memory _name) public {\r\n        \r\n        for (uint i = 0; i < departmentID; i++){\r\n            if (keccak256(abi.encode(departmentList[i].departmentName)) == keccak256(abi.encode(_name))){\r\n                departmentList[i].departmentStatus = false;\r\n               for (uint j = i; j < departmentID-1; j++){\r\n                    if (departmentList[j+1].departmentStatus == true){\r\n                 uint tmp_ID = departmentList[j].departmentID;\r\n                  string memory tmp_Name = departmentList[j].departmentName;\r\n                \r\n                 departmentList[j].departmentID = departmentList[j+1].departmentID;\r\n                 departmentList[j].departmentName = departmentList[j+1].departmentName;\r\n                 departmentList[j].departmentStatus = true;\r\n                 departmentList[j+1].departmentID = tmp_ID;\r\n                departmentList[j+1].departmentName = tmp_Name;\r\n                 departmentList[j+1].departmentStatus = false;\r\n            }\r\n            }\r\n           departmentID = departmentID -1;\r\n            break;\r\n            }\r\n        }\r\n        \r\n        \r\n    }\r\n\r\n    function GetPositionNameFromPositionNum(uint256 _number) public view returns(string memory)\r\n    {\r\n        return positionsList[_number].positionName;\r\n    }\r\n\r\n      function GetPositionStatusFromPositionNum(uint256 _number) public view returns(string memory)\r\n    {\r\n        if (positionsList[_number].positionStatus == true){\r\n            string memory tr = \"true\";\r\n            return tr;\r\n        } else {\r\n            string memory fl = \"false\";\r\n            return fl;\r\n        }\r\n      \r\n    }\r\n\r\n    function GetDepartmentNameFromDepartmentNum(uint256 _number) public view returns(string memory){\r\n        return departmentList[_number].departmentName;\r\n    }\r\n\r\n     function GetDepartmentStatusFromDepartmentNum(uint256 _number) public view returns(bool){\r\n        return departmentList[_number].departmentStatus;\r\n    }\r\n\r\n\r\n    function GetPositionsCount() public view returns(uint) {\r\n       \r\n        return positionID;\r\n    }\r\n\r\n    function GetDepartmentsCount() public view returns(uint){\r\n        return departmentID;\r\n    }\r\n\r\n    function GetEmployeeCount() public view returns(uint){\r\n        return employeeID;\r\n    }\r\n\r\n    function CheckUser (string memory _acc) public view returns(uint){\r\n        for (uint i = 0; i < employeeID; i++){\r\n            if (keccak256(abi.encode(employeeList[i].Addr)) == keccak256(abi.encode(_acc))){\r\n                if (keccak256(abi.encode(employeeList[i].Status)) == keccak256(abi.encode(' '))) return 1;\r\n                if (keccak256(abi.encode(employeeList[i].Status)) == keccak256(abi.encode(' '))) return 2;\r\n                if (keccak256(abi.encode(employeeList[i].Status)) == keccak256(abi.encode(' '))) return 3;\r\n            }\r\n        }\r\n        return 0;\r\n    }\r\n\r\n    function GetEmployeeInfo(uint i) public view returns(string memory, string memory, string memory, string memory, string memory, string memory, string memory){\r\n                return (employeeList[i].Surname,\r\n                employeeList[i].Name,\r\n                employeeList[i].MiddleName,\r\n                employeeList[i].Addr,\r\n                employeeList[i].Department,\r\n                employeeList[i].Position,\r\n                employeeList[i].Status);\r\n    }\r\n\r\n\r\n    function GetPersonalInfo(string memory _acc) public view returns(uint256, string memory, string memory, string memory, string memory, string memory, string memory){\r\n        for (uint i = 0; i < employeeID; i++){\r\n            if (keccak256(abi.encode(employeeList[i].Addr)) == keccak256(abi.encode(_acc))){\r\n                return (employeeList[i].employeeID, \r\n                        employeeList[i].Surname,\r\n                        employeeList[i].Name,\r\n                        employeeList[i].MiddleName,\r\n                        employeeList[i].Department,\r\n                        employeeList[i].Position,\r\n                        employeeList[i].Status);\r\n            }\r\n        }\r\n    }\r\n\r\n    function GetAccountDepartment (string memory _acc) public view returns (string memory){\r\n        for (uint i = 0; i < employeeID; i++){\r\n            if (keccak256(abi.encode(employeeList[i].Addr)) == keccak256(abi.encode(_acc))){\r\n                return employeeList[i].Department;\r\n            }\r\n        }\r\n    }\r\n\r\n}",
  "sourcePath": "C:/projects/bootstrap/contracts/AdminInfo.sol",
  "compiler": {
    "name": "solc",
    "version": "0.5.7+commit.6da8b019.Emscripten.clang"
  },
  "schemaVersion": "3.0.0-beta.2",
  "updatedAt": "2019-04-26T10:33:59.025Z",
  "devdoc": {
    "methods": {}
  },
  "userdoc": {
    "methods": {}
  }
}